{
  "_format": "hh-sol-artifact-1",
  "contractName": "AuctionHouse",
  "sourceName": "contracts/AuctionHouse.sol",
  "abi": [
    {
      "inputs": [],
      "stateMutability": "nonpayable",
      "type": "constructor"
    },
    {
      "anonymous": false,
      "inputs": [
        {
          "indexed": false,
          "internalType": "uint256",
          "name": "id",
          "type": "uint256"
        }
      ],
      "name": "AuctionCreated",
      "type": "event"
    },
    {
      "anonymous": false,
      "inputs": [
        {
          "indexed": false,
          "internalType": "uint256",
          "name": "auctionId",
          "type": "uint256"
        },
        {
          "indexed": true,
          "internalType": "address",
          "name": "user",
          "type": "address"
        },
        {
          "indexed": false,
          "internalType": "uint256",
          "name": "bidId",
          "type": "uint256"
        }
      ],
      "name": "NewBid",
      "type": "event"
    },
    {
      "anonymous": false,
      "inputs": [
        {
          "indexed": true,
          "internalType": "address",
          "name": "previousOwner",
          "type": "address"
        },
        {
          "indexed": true,
          "internalType": "address",
          "name": "newOwner",
          "type": "address"
        }
      ],
      "name": "OwnershipTransferred",
      "type": "event"
    },
    {
      "inputs": [],
      "name": "MAX_LENGTH_AUCTION",
      "outputs": [
        {
          "internalType": "uint256",
          "name": "",
          "type": "uint256"
        }
      ],
      "stateMutability": "view",
      "type": "function"
    },
    {
      "inputs": [],
      "name": "MIN_LENGTH_AUCTION",
      "outputs": [
        {
          "internalType": "uint256",
          "name": "",
          "type": "uint256"
        }
      ],
      "stateMutability": "view",
      "type": "function"
    },
    {
      "inputs": [
        {
          "internalType": "uint256",
          "name": "auctionId",
          "type": "uint256"
        }
      ],
      "name": "addBid",
      "outputs": [],
      "stateMutability": "payable",
      "type": "function"
    },
    {
      "inputs": [
        {
          "internalType": "uint256",
          "name": "",
          "type": "uint256"
        }
      ],
      "name": "auctions",
      "outputs": [
        {
          "internalType": "string",
          "name": "auctionName",
          "type": "string"
        },
        {
          "internalType": "uint256",
          "name": "timeCreated",
          "type": "uint256"
        },
        {
          "internalType": "uint256",
          "name": "timeStart",
          "type": "uint256"
        },
        {
          "internalType": "uint256",
          "name": "timeEnd",
          "type": "uint256"
        },
        {
          "internalType": "address",
          "name": "createdBy",
          "type": "address"
        },
        {
          "internalType": "uint256",
          "name": "bidCount",
          "type": "uint256"
        },
        {
          "internalType": "uint256",
          "name": "basePrice",
          "type": "uint256"
        },
        {
          "components": [
            {
              "internalType": "uint256",
              "name": "bidTime",
              "type": "uint256"
            },
            {
              "internalType": "uint256",
              "name": "price",
              "type": "uint256"
            },
            {
              "internalType": "address",
              "name": "user",
              "type": "address"
            }
          ],
          "internalType": "struct AuctionHouse.Bid",
          "name": "currentHighestBid",
          "type": "tuple"
        }
      ],
      "stateMutability": "view",
      "type": "function"
    },
    {
      "inputs": [],
      "name": "currentAuctionId",
      "outputs": [
        {
          "internalType": "uint256",
          "name": "",
          "type": "uint256"
        }
      ],
      "stateMutability": "view",
      "type": "function"
    },
    {
      "inputs": [],
      "name": "minAuctionStartBid",
      "outputs": [
        {
          "internalType": "uint256",
          "name": "",
          "type": "uint256"
        }
      ],
      "stateMutability": "view",
      "type": "function"
    },
    {
      "inputs": [
        {
          "internalType": "string",
          "name": "auctionName",
          "type": "string"
        },
        {
          "internalType": "uint256",
          "name": "timeStart",
          "type": "uint256"
        },
        {
          "internalType": "uint256",
          "name": "timeEnd",
          "type": "uint256"
        },
        {
          "internalType": "uint256",
          "name": "amount",
          "type": "uint256"
        }
      ],
      "name": "newAuction",
      "outputs": [],
      "stateMutability": "nonpayable",
      "type": "function"
    },
    {
      "inputs": [],
      "name": "owner",
      "outputs": [
        {
          "internalType": "address",
          "name": "",
          "type": "address"
        }
      ],
      "stateMutability": "view",
      "type": "function"
    },
    {
      "inputs": [],
      "name": "renounceOwnership",
      "outputs": [],
      "stateMutability": "nonpayable",
      "type": "function"
    },
    {
      "inputs": [
        {
          "internalType": "address",
          "name": "newOwner",
          "type": "address"
        }
      ],
      "name": "transferOwnership",
      "outputs": [],
      "stateMutability": "nonpayable",
      "type": "function"
    },
    {
      "inputs": [],
      "name": "withdraw",
      "outputs": [],
      "stateMutability": "nonpayable",
      "type": "function"
    }
  ],
  "bytecode": "0x6080604052633b9aca0060045534801561001857600080fd5b506100223361002b565b6001805561007b565b600080546001600160a01b038381166001600160a01b0319831681178455604051919092169283917f8be0079c531659141344cd1fd0a4f28419497f9722a3daafe3b4186f6b6457e09190a35050565b610e6f8061008a6000396000f3fe6080604052600436106100bc5760003560e01c8063715018a6116100745780639aa71d831161004e5780639aa71d83146101bb578063dbdc819a146101d1578063f2fde38b146101e857600080fd5b8063715018a6146101685780638da5cb5b1461017d57806397d08a20146101a557600080fd5b80633ccfd60b116100a55780633ccfd60b146100ff57806353df89d714610114578063571a26a01461013457600080fd5b80630c0b86ca146100c157806314b0e266146100ea575b600080fd5b3480156100cd57600080fd5b506100d760025481565b6040519081526020015b60405180910390f35b6100fd6100f8366004610ccc565b610208565b005b34801561010b57600080fd5b506100fd61050e565b34801561012057600080fd5b506100fd61012f366004610c0b565b610628565b34801561014057600080fd5b5061015461014f366004610ccc565b6108a7565b6040516100e1989796959493929190610ce4565b34801561017457600080fd5b506100fd61099f565b34801561018957600080fd5b506000546040516001600160a01b0390911681526020016100e1565b3480156101b157600080fd5b506100d7610e1081565b3480156101c757600080fd5b506100d760045481565b3480156101dd57600080fd5b506100d762093a8081565b3480156101f457600080fd5b506100fd610203366004610bdd565b610a05565b60008181526003602052604090206002015461026b5760405162461bcd60e51b815260206004820152601660248201527f41756374696f6e20646f6573206e6f742065786973740000000000000000000060448201526064015b60405180910390fd5b600081815260036020526040902060048101546001600160a01b03163314156102d65760405162461bcd60e51b815260206004820152601e60248201527f43726561746f722063616e6e6f7420626964206f776e2061756374696f6e00006044820152606401610262565b806002015442101561032a5760405162461bcd60e51b815260206004820152601760248201527f41756374696f6e20686173206e6f7420737461727465640000000000000000006044820152606401610262565b8060030154421061037d5760405162461bcd60e51b815260206004820152601960248201527f41756374696f6e2068617320616c726561647920656e646564000000000000006044820152606401610262565b8060060154341180156103935750600881015434115b6104055760405162461bcd60e51b815260206004820152603c60248201527f596f757220626964207072696365206d7573742062652068696768657220746860448201527f616e2063757272656e74206869676865737420626964207072696365000000006064820152608401610262565b60058101541561044657600881015460098201546001600160a01b031660009081526005602052604081208054909190610440908490610da3565b90915550505b60006040518060600160405280428152602001348152602001336001600160a01b0316815250905060018260050160008282546104839190610da3565b909155505080516007830155602080820151600884015560408083015160098501805473ffffffffffffffffffffffffffffffffffffffff19166001600160a01b03909216919091179055600584015481518681529283015233917f558a0d5d5468d74b0db24c74eb348b42271c2ebb4c9e953ced38aaed95fa4361910160405180910390a2505050565b3360009081526005602052604090205461056a5760405162461bcd60e51b815260206004820152600c60248201527f4e6f2077697468647261777300000000000000000000000000000000000000006044820152606401610262565b33600081815260056020526040808220805490839055905190929083908381818185875af1925050503d80600081146105bf576040519150601f19603f3d011682016040523d82523d6000602084013e6105c4565b606091505b50509050806106155760405162461bcd60e51b815260206004820152601060248201527f5472616e73666572206661696c65642e000000000000000000000000000000006044820152606401610262565b5033600090815260056020526040902055565b6002600154141561067b5760405162461bcd60e51b815260206004820152601f60248201527f5265656e7472616e637947756172643a207265656e7472616e742063616c6c006044820152606401610262565b60026001558183106106f55760405162461bcd60e51b815260206004820152602360248201527f74696d65456e64206d757374206265206d6f7265207468616e2074696d65537460448201527f61727400000000000000000000000000000000000000000000000000000000006064820152608401610262565b610e106107024284610dbb565b11801561071a575062093a806107184284610dbb565b105b6107665760405162461bcd60e51b815260206004820181905260248201527f41756e6374696f6e206c656e677468206f757473696465206f662072616e67656044820152606401610262565b6004548110156107de5760405162461bcd60e51b815260206004820152602c60248201527f41756374696f6e206d757374206265206d6f7265207468616e206d696e41756360448201527f74696f6e537461727442696400000000000000000000000000000000000000006064820152608401610262565b6001600260008282546107f19190610da3565b909155505060025460009081526003602090815260409091208551909161081c918391880190610b44565b5042600182015560028082018590556003820184905560048201805473ffffffffffffffffffffffffffffffffffffffff1916331790556000600583015560068201839055546040517f7e0e356457a92dacd3760ddf327a24dd226c6ca01b2cc41a7fd6f28469c7ab9b916108949190815260200190565b60405180910390a1505060018055505050565b6003602052600090815260409020805481906108c290610dd2565b80601f01602080910402602001604051908101604052809291908181526020018280546108ee90610dd2565b801561093b5780601f106109105761010080835404028352916020019161093b565b820191906000526020600020905b81548152906001019060200180831161091e57829003601f168201915b5050506001840154600285015460038601546004870154600588015460068901546040805160608101825260078c0154815260088c015460208201526009909b01546001600160a01b03908116918c01919091529899959894975092955092169288565b6000546001600160a01b031633146109f95760405162461bcd60e51b815260206004820181905260248201527f4f776e61626c653a2063616c6c6572206973206e6f7420746865206f776e65726044820152606401610262565b610a036000610ae7565b565b6000546001600160a01b03163314610a5f5760405162461bcd60e51b815260206004820181905260248201527f4f776e61626c653a2063616c6c6572206973206e6f7420746865206f776e65726044820152606401610262565b6001600160a01b038116610adb5760405162461bcd60e51b815260206004820152602660248201527f4f776e61626c653a206e6577206f776e657220697320746865207a65726f206160448201527f64647265737300000000000000000000000000000000000000000000000000006064820152608401610262565b610ae481610ae7565b50565b600080546001600160a01b0383811673ffffffffffffffffffffffffffffffffffffffff19831681178455604051919092169283917f8be0079c531659141344cd1fd0a4f28419497f9722a3daafe3b4186f6b6457e09190a35050565b828054610b5090610dd2565b90600052602060002090601f016020900481019282610b725760008555610bb8565b82601f10610b8b57805160ff1916838001178555610bb8565b82800160010185558215610bb8579182015b82811115610bb8578251825591602001919060010190610b9d565b50610bc4929150610bc8565b5090565b5b80821115610bc45760008155600101610bc9565b600060208284031215610bee578081fd5b81356001600160a01b0381168114610c04578182fd5b9392505050565b60008060008060808587031215610c20578283fd5b843567ffffffffffffffff80821115610c37578485fd5b818701915087601f830112610c4a578485fd5b813581811115610c5c57610c5c610e23565b604051601f8201601f19908116603f01168101908382118183101715610c8457610c84610e23565b816040528281528a6020848701011115610c9c578788fd5b82602086016020830137918201602090810197909752509894870135975050506040850135946060013593505050565b600060208284031215610cdd578081fd5b5035919050565b60006101408083528a5180828501528291505b80821015610d19576020828d0101516101608386010152602082019150610cf7565b80821115610d2b578261016082860101525b610160601f19601f83011685010192505050886020830152876040830152866060830152610d6460808301876001600160a01b03169052565b60a082019490945260c0810192909252805160e08301526020810151610100830152604001516001600160a01b03166101209091015295945050505050565b60008219821115610db657610db6610e0d565b500190565b600082821015610dcd57610dcd610e0d565b500390565b600181811c90821680610de657607f821691505b60208210811415610e0757634e487b7160e01b600052602260045260246000fd5b50919050565b634e487b7160e01b600052601160045260246000fd5b634e487b7160e01b600052604160045260246000fdfea26469706673582212209d86d9b91e049a21e79989f6c1010e8459523c01e653c1d50fd800594ae7efb164736f6c63430008040033",
  "linkReferences": {},
  "deployedLinkReferences": {}
}