{
  "_format": "hh-sol-artifact-1",
  "contractName": "Counter",
  "sourceName": "contracts/Counter.sol",
  "abi": [
    {
      "inputs": [
        {
          "internalType": "uint256",
          "name": "value",
          "type": "uint256"
        }
      ],
      "stateMutability": "nonpayable",
      "type": "constructor"
    },
    {
      "anonymous": false,
      "inputs": [
        {
          "indexed": true,
          "internalType": "address",
          "name": "previousOwner",
          "type": "address"
        },
        {
          "indexed": true,
          "internalType": "address",
          "name": "newOwner",
          "type": "address"
        }
      ],
      "name": "OwnershipTransferred",
      "type": "event"
    },
    {
      "inputs": [
        {
          "internalType": "uint256",
          "name": "value",
          "type": "uint256"
        }
      ],
      "name": "add",
      "outputs": [],
      "stateMutability": "nonpayable",
      "type": "function"
    },
    {
      "inputs": [],
      "name": "owner",
      "outputs": [
        {
          "internalType": "address",
          "name": "",
          "type": "address"
        }
      ],
      "stateMutability": "view",
      "type": "function"
    },
    {
      "inputs": [],
      "name": "renounceOwnership",
      "outputs": [],
      "stateMutability": "nonpayable",
      "type": "function"
    },
    {
      "inputs": [
        {
          "internalType": "address",
          "name": "newOwner",
          "type": "address"
        }
      ],
      "name": "transferOwnership",
      "outputs": [],
      "stateMutability": "nonpayable",
      "type": "function"
    }
  ],
  "bytecode": "0x608060405234801561001057600080fd5b5060405161064f38038061064f83398101604081905261002f91610153565b61003833610095565b600180819055508060028190555061008f6040518060400160405280601d81526020017f436f756e74657220696e697469616c2076616c75652073657420746f20000000815250826100e560201b6102661760201c565b506101c6565b600080546001600160a01b038381166001600160a01b0319831681178455604051919092169283917f8be0079c531659141344cd1fd0a4f28419497f9722a3daafe3b4186f6b6457e09190a35050565b61012e82826040516024016100fb92919061016b565b60408051601f198184030181529190526020810180516001600160e01b039081166309710a9d60e41b1790915261013216565b5050565b80516a636f6e736f6c652e6c6f67602083016000808483855afa5050505050565b600060208284031215610164578081fd5b5051919050565b6040815260008351806040840152815b81811015610198576020818701810151606086840101520161017b565b818111156101a95782606083860101525b50602083019390935250601f91909101601f191601606001919050565b61047a806101d56000396000f3fe608060405234801561001057600080fd5b506004361061004c5760003560e01c80631003e2d214610051578063715018a6146100665780638da5cb5b1461006e578063f2fde38b1461008d575b600080fd5b61006461005f366004610394565b6100a0565b005b61006461011e565b600054604080516001600160a01b039092168252519081900360200190f35b61006461009b366004610366565b610184565b600260015414156100f85760405162461bcd60e51b815260206004820152601f60248201527f5265656e7472616e637947756172643a207265656e7472616e742063616c6c0060448201526064015b60405180910390fd5b600260018190555080600260008282546101129190610407565b90915550506001805550565b6000546001600160a01b031633146101785760405162461bcd60e51b815260206004820181905260248201527f4f776e61626c653a2063616c6c6572206973206e6f7420746865206f776e657260448201526064016100ef565b61018260006102dd565b565b6000546001600160a01b031633146101de5760405162461bcd60e51b815260206004820181905260248201527f4f776e61626c653a2063616c6c6572206973206e6f7420746865206f776e657260448201526064016100ef565b6001600160a01b03811661025a5760405162461bcd60e51b815260206004820152602660248201527f4f776e61626c653a206e6577206f776e657220697320746865207a65726f206160448201527f646472657373000000000000000000000000000000000000000000000000000060648201526084016100ef565b610263816102dd565b50565b6102d9828260405160240161027c9291906103ac565b60408051601f198184030181529190526020810180517bffffffffffffffffffffffffffffffffffffffffffffffffffffffff167f9710a9d000000000000000000000000000000000000000000000000000000000179052610345565b5050565b600080546001600160a01b038381167fffffffffffffffffffffffff0000000000000000000000000000000000000000831681178455604051919092169283917f8be0079c531659141344cd1fd0a4f28419497f9722a3daafe3b4186f6b6457e09190a35050565b80516a636f6e736f6c652e6c6f67602083016000808483855afa5050505050565b600060208284031215610377578081fd5b81356001600160a01b038116811461038d578182fd5b9392505050565b6000602082840312156103a5578081fd5b5035919050565b6040815260008351806040840152815b818110156103d957602081870181015160608684010152016103bc565b818111156103ea5782606083860101525b50602083019390935250601f91909101601f191601606001919050565b6000821982111561043f577f4e487b710000000000000000000000000000000000000000000000000000000081526011600452602481fd5b50019056fea26469706673582212201071585a763b787186d18ab334700c5a950ca8b71675d4f31580e7b380a3b1f564736f6c63430008040033",
  "linkReferences": {},
  "deployedLinkReferences": {}
}