{
  "_format": "hh-sol-artifact-1",
  "contractName": "Counter",
  "sourceName": "contracts/Counter.sol",
  "abi": [
    {
      "inputs": [
        {
          "internalType": "uint256",
          "name": "value",
          "type": "uint256"
        }
      ],
      "stateMutability": "nonpayable",
      "type": "constructor"
    },
    {
      "anonymous": false,
      "inputs": [
        {
          "indexed": true,
          "internalType": "address",
          "name": "previousOwner",
          "type": "address"
        },
        {
          "indexed": true,
          "internalType": "address",
          "name": "newOwner",
          "type": "address"
        }
      ],
      "name": "OwnershipTransferred",
      "type": "event"
    },
    {
      "inputs": [
        {
          "internalType": "uint256",
          "name": "value",
          "type": "uint256"
        }
      ],
      "name": "add",
      "outputs": [],
      "stateMutability": "nonpayable",
      "type": "function"
    },
    {
      "inputs": [],
      "name": "counter",
      "outputs": [
        {
          "internalType": "uint256",
          "name": "",
          "type": "uint256"
        }
      ],
      "stateMutability": "view",
      "type": "function"
    },
    {
      "inputs": [],
      "name": "owner",
      "outputs": [
        {
          "internalType": "address",
          "name": "",
          "type": "address"
        }
      ],
      "stateMutability": "view",
      "type": "function"
    },
    {
      "inputs": [],
      "name": "renounceOwnership",
      "outputs": [],
      "stateMutability": "nonpayable",
      "type": "function"
    },
    {
      "inputs": [
        {
          "internalType": "address",
          "name": "newOwner",
          "type": "address"
        }
      ],
      "name": "transferOwnership",
      "outputs": [],
      "stateMutability": "nonpayable",
      "type": "function"
    }
  ],
  "bytecode": "0x608060405234801561001057600080fd5b5060405161068238038061068283398101604081905261002f91610153565b61003833610095565b600180819055508060028190555061008f6040518060400160405280601d81526020017f436f756e74657220696e697469616c2076616c75652073657420746f20000000815250826100e560201b6102991760201c565b506101c6565b600080546001600160a01b038381166001600160a01b0319831681178455604051919092169283917f8be0079c531659141344cd1fd0a4f28419497f9722a3daafe3b4186f6b6457e09190a35050565b61012e82826040516024016100fb92919061016b565b60408051601f198184030181529190526020810180516001600160e01b039081166309710a9d60e41b1790915261013216565b5050565b80516a636f6e736f6c652e6c6f67602083016000808483855afa5050505050565b600060208284031215610164578081fd5b5051919050565b6040815260008351806040840152815b81811015610198576020818701810151606086840101520161017b565b818111156101a95782606083860101525b50602083019390935250601f91909101601f191601606001919050565b6104ad806101d56000396000f3fe608060405234801561001057600080fd5b50600436106100675760003560e01c8063715018a611610050578063715018a61461009d5780638da5cb5b146100a5578063f2fde38b146100c057600080fd5b80631003e2d21461006c57806361bc221a14610081575b600080fd5b61007f61007a3660046103c7565b6100d3565b005b61008a60025481565b6040519081526020015b60405180910390f35b61007f610151565b6000546040516001600160a01b039091168152602001610094565b61007f6100ce366004610399565b6101b7565b6002600154141561012b5760405162461bcd60e51b815260206004820152601f60248201527f5265656e7472616e637947756172643a207265656e7472616e742063616c6c0060448201526064015b60405180910390fd5b60026001819055508060026000828254610145919061043a565b90915550506001805550565b6000546001600160a01b031633146101ab5760405162461bcd60e51b815260206004820181905260248201527f4f776e61626c653a2063616c6c6572206973206e6f7420746865206f776e65726044820152606401610122565b6101b56000610310565b565b6000546001600160a01b031633146102115760405162461bcd60e51b815260206004820181905260248201527f4f776e61626c653a2063616c6c6572206973206e6f7420746865206f776e65726044820152606401610122565b6001600160a01b03811661028d5760405162461bcd60e51b815260206004820152602660248201527f4f776e61626c653a206e6577206f776e657220697320746865207a65726f206160448201527f64647265737300000000000000000000000000000000000000000000000000006064820152608401610122565b61029681610310565b50565b61030c82826040516024016102af9291906103df565b60408051601f198184030181529190526020810180517bffffffffffffffffffffffffffffffffffffffffffffffffffffffff167f9710a9d000000000000000000000000000000000000000000000000000000000179052610378565b5050565b600080546001600160a01b038381167fffffffffffffffffffffffff0000000000000000000000000000000000000000831681178455604051919092169283917f8be0079c531659141344cd1fd0a4f28419497f9722a3daafe3b4186f6b6457e09190a35050565b80516a636f6e736f6c652e6c6f67602083016000808483855afa5050505050565b6000602082840312156103aa578081fd5b81356001600160a01b03811681146103c0578182fd5b9392505050565b6000602082840312156103d8578081fd5b5035919050565b6040815260008351806040840152815b8181101561040c57602081870181015160608684010152016103ef565b8181111561041d5782606083860101525b50602083019390935250601f91909101601f191601606001919050565b60008219821115610472577f4e487b710000000000000000000000000000000000000000000000000000000081526011600452602481fd5b50019056fea2646970667358221220b795cfd4faf8c4a792089f7ef697a6ac8b6b69270518707ff974d99cb199db9164736f6c63430008040033",
  "linkReferences": {},
  "deployedLinkReferences": {}
}