{
  "_format": "hh-sol-artifact-1",
  "contractName": "Multicall",
  "sourceName": "contracts/Multicall.sol",
  "abi": [
    {
      "inputs": [
        {
          "components": [
            {
              "internalType": "address",
              "name": "target",
              "type": "address"
            },
            {
              "internalType": "bytes",
              "name": "callData",
              "type": "bytes"
            }
          ],
          "internalType": "struct Multicall.Call[]",
          "name": "calls",
          "type": "tuple[]"
        },
        {
          "internalType": "bool",
          "name": "strict",
          "type": "bool"
        }
      ],
      "name": "aggregate",
      "outputs": [
        {
          "internalType": "uint256",
          "name": "blockNumber",
          "type": "uint256"
        },
        {
          "components": [
            {
              "internalType": "bool",
              "name": "success",
              "type": "bool"
            },
            {
              "internalType": "bytes",
              "name": "data",
              "type": "bytes"
            }
          ],
          "internalType": "struct Multicall.Return[]",
          "name": "returnData",
          "type": "tuple[]"
        }
      ],
      "stateMutability": "nonpayable",
      "type": "function"
    },
    {
      "inputs": [
        {
          "internalType": "uint256",
          "name": "blockNumber",
          "type": "uint256"
        }
      ],
      "name": "getBlockHash",
      "outputs": [
        {
          "internalType": "bytes32",
          "name": "blockHash",
          "type": "bytes32"
        }
      ],
      "stateMutability": "view",
      "type": "function"
    },
    {
      "inputs": [],
      "name": "getCurrentBlockCoinbase",
      "outputs": [
        {
          "internalType": "address",
          "name": "coinbase",
          "type": "address"
        }
      ],
      "stateMutability": "view",
      "type": "function"
    },
    {
      "inputs": [],
      "name": "getCurrentBlockDifficulty",
      "outputs": [
        {
          "internalType": "uint256",
          "name": "difficulty",
          "type": "uint256"
        }
      ],
      "stateMutability": "view",
      "type": "function"
    },
    {
      "inputs": [],
      "name": "getCurrentBlockGasLimit",
      "outputs": [
        {
          "internalType": "uint256",
          "name": "gaslimit",
          "type": "uint256"
        }
      ],
      "stateMutability": "view",
      "type": "function"
    },
    {
      "inputs": [],
      "name": "getCurrentBlockTimestamp",
      "outputs": [
        {
          "internalType": "uint256",
          "name": "timestamp",
          "type": "uint256"
        }
      ],
      "stateMutability": "view",
      "type": "function"
    },
    {
      "inputs": [
        {
          "internalType": "address",
          "name": "addr",
          "type": "address"
        }
      ],
      "name": "getEthBalance",
      "outputs": [
        {
          "internalType": "uint256",
          "name": "balance",
          "type": "uint256"
        }
      ],
      "stateMutability": "view",
      "type": "function"
    },
    {
      "inputs": [],
      "name": "getLastBlockHash",
      "outputs": [
        {
          "internalType": "bytes32",
          "name": "blockHash",
          "type": "bytes32"
        }
      ],
      "stateMutability": "view",
      "type": "function"
    }
  ],
  "bytecode": "0x608060405234801561001057600080fd5b506106ab806100206000396000f3fe608060405234801561001057600080fd5b50600436106100885760003560e01c806372425d9d1161005b57806372425d9d146100f357806386d516e8146100f9578063a8b0574e146100ff578063ee82ac5e1461010d57600080fd5b80630f28c97d1461008d57806317352e13146100a257806327e86d6e146100c35780634d2301cc146100cb575b600080fd5b425b6040519081526020015b60405180910390f35b6100b56100b03660046103f0565b61011f565b6040516100999291906104f8565b61008f6102d5565b61008f6100d93660046103cf565b73ffffffffffffffffffffffffffffffffffffffff163190565b4461008f565b4561008f565b604051418152602001610099565b61008f61011b3660046104c4565b4090565b8151439060609067ffffffffffffffff81111561014c57634e487b7160e01b600052604160045260246000fd5b60405190808252806020026020018201604052801561019257816020015b60408051808201909152600081526060602082015281526020019060019003908161016a5790505b50905060005b84518110156102cd576000808683815181106101c457634e487b7160e01b600052603260045260246000fd5b60200260200101516000015173ffffffffffffffffffffffffffffffffffffffff1687848151811061020657634e487b7160e01b600052603260045260246000fd5b60200260200101516020015160405161021f91906104dc565b6000604051808303816000865af19150503d806000811461025c576040519150601f19603f3d011682016040523d82523d6000602084013e610261565b606091505b50915091508515610276578161027657600080fd5b60405180604001604052808315158152602001828152508484815181106102ad57634e487b7160e01b600052603260045260246000fd5b6020026020010181905250505080806102c59061062e565b915050610198565b509250929050565b60006102e26001436105e7565b40905090565b803573ffffffffffffffffffffffffffffffffffffffff8116811461030c57600080fd5b919050565b8035801515811461030c57600080fd5b600060408284031215610332578081fd5b61033a61058d565b9050610345826102e8565b815260208083013567ffffffffffffffff8082111561036357600080fd5b818501915085601f83011261037757600080fd5b8135818111156103895761038961065f565b61039b601f8201601f191685016105b6565b915080825286848285010111156103b157600080fd5b80848401858401376000908201840152918301919091525092915050565b6000602082840312156103e0578081fd5b6103e9826102e8565b9392505050565b60008060408385031215610402578081fd5b823567ffffffffffffffff80821115610419578283fd5b818501915085601f83011261042c578283fd5b81356020828211156104405761044061065f565b8160051b61044f8282016105b6565b8381528281019086840183880185018c1015610469578889fd5b8893505b858410156104a65780358781111561048357898afd5b6104918d87838c0101610321565b8452506001939093019291840191840161046d565b5097506104b7915050878201610311565b9450505050509250929050565b6000602082840312156104d5578081fd5b5035919050565b600082516104ee8184602087016105fe565b9190910192915050565b6000604080830185845260208281860152818651808452606093508387019150838160051b880101838901875b8381101561057d57898303605f190185528151805115158452860151868401899052805189850181905261055e818a8701848b016105fe565b95870195601f01601f1916939093018701925090850190600101610525565b50909a9950505050505050505050565b6040805190810167ffffffffffffffff811182821017156105b0576105b061065f565b60405290565b604051601f8201601f1916810167ffffffffffffffff811182821017156105df576105df61065f565b604052919050565b6000828210156105f9576105f9610649565b500390565b60005b83811015610619578181015183820152602001610601565b83811115610628576000848401525b50505050565b600060001982141561064257610642610649565b5060010190565b634e487b7160e01b600052601160045260246000fd5b634e487b7160e01b600052604160045260246000fdfea2646970667358221220c0cda85913b211bc53ed3deb8e1109f805feb7f2e4194ac5419b63cdeeb2ed2d64736f6c63430008040033",
  "linkReferences": {},
  "deployedLinkReferences": {}
}